:03000000020003F8
:0C000300787FE4F6D8FD75813A02004ACF
:10008F001921C0F9A4B0999282F880908883C6A1F3
:10009F00868E89C7C8C18CA3BFFFFF19083F065BB7
:1000AF004F666D7D077F6F777C395E797176383754
:0600BF003E735C400000EE
:1000C600E4F53A7421253AF8E6F580C3740F953ABB
:1000D6002421F8E6F5B07FE87E031200F0053AC366
:0A00E600E53A6480948840DB80D680
:1000F000EF1FAA0670011E4A600B7D7CEDD39400B1
:0501000040EE1D80F738
:0101050022D7
:10000F000200C6E493A3F8E493A34003F68001F241
:10001F0008DFF48029E493A3F85407240CC8C333F2
:10002F00C4540F4420C8834004F456800146F6DFC1
:10003F00E4800B010204081020408090008FE47EC2
:10004F00019360BCA3FF543F30E509541FFEE493B6
:10005F00A360010ECF54C025E060A840B8E493A37D
:10006F00FAE493A3F8E493A3C8C582C8CAC583CAA8
:10007F00F0A3C8C582C8CAC583CADFE9DEE780BE60
:0100C500003A
:00000001FF
